{
  "address": "0x88888e29427CC66EC72da12D72797fB1393Fffff",
  "abi": [
    {
      "inputs": [
        {
          "internalType": "uint256",
          "name": "_initial",
          "type": "uint256"
        },
        {
          "internalType": "address",
          "name": "_governance",
          "type": "address"
        }
      ],
      "stateMutability": "nonpayable",
      "type": "constructor"
    },
    {
      "anonymous": false,
      "inputs": [
        {
          "indexed": true,
          "internalType": "address",
          "name": "owner",
          "type": "address"
        },
        {
          "indexed": true,
          "internalType": "address",
          "name": "spender",
          "type": "address"
        },
        {
          "indexed": false,
          "internalType": "uint256",
          "name": "value",
          "type": "uint256"
        }
      ],
      "name": "Approval",
      "type": "event"
    },
    {
      "anonymous": false,
      "inputs": [
        {
          "indexed": true,
          "internalType": "address",
          "name": "previousOwner",
          "type": "address"
        },
        {
          "indexed": true,
          "internalType": "address",
          "name": "newOwner",
          "type": "address"
        }
      ],
      "name": "OwnershipTransferred",
      "type": "event"
    },
    {
      "anonymous": false,
      "inputs": [
        {
          "indexed": true,
          "internalType": "address",
          "name": "from",
          "type": "address"
        },
        {
          "indexed": true,
          "internalType": "address",
          "name": "to",
          "type": "address"
        },
        {
          "indexed": false,
          "internalType": "uint256",
          "name": "value",
          "type": "uint256"
        }
      ],
      "name": "Transfer",
      "type": "event"
    },
    {
      "inputs": [],
      "name": "EMISSION_CLIFF",
      "outputs": [
        {
          "internalType": "uint256",
          "name": "",
          "type": "uint256"
        }
      ],
      "stateMutability": "view",
      "type": "function"
    },
    {
      "inputs": [],
      "name": "EMISSION_PER_YEAR_BP",
      "outputs": [
        {
          "internalType": "uint256",
          "name": "",
          "type": "uint256"
        }
      ],
      "stateMutability": "view",
      "type": "function"
    },
    {
      "inputs": [],
      "name": "MAX_EMISSION_PER_YEAR_BP",
      "outputs": [
        {
          "internalType": "uint256",
          "name": "",
          "type": "uint256"
        }
      ],
      "stateMutability": "view",
      "type": "function"
    },
    {
      "inputs": [],
      "name": "YEAR_DURATION",
      "outputs": [
        {
          "internalType": "uint256",
          "name": "",
          "type": "uint256"
        }
      ],
      "stateMutability": "view",
      "type": "function"
    },
    {
      "inputs": [
        {
          "internalType": "address",
          "name": "owner",
          "type": "address"
        },
        {
          "internalType": "address",
          "name": "spender",
          "type": "address"
        }
      ],
      "name": "allowance",
      "outputs": [
        {
          "internalType": "uint256",
          "name": "",
          "type": "uint256"
        }
      ],
      "stateMutability": "view",
      "type": "function"
    },
    {
      "inputs": [
        {
          "internalType": "address",
          "name": "spender",
          "type": "address"
        },
        {
          "internalType": "uint256",
          "name": "amount",
          "type": "uint256"
        }
      ],
      "name": "approve",
      "outputs": [
        {
          "internalType": "bool",
          "name": "",
          "type": "bool"
        }
      ],
      "stateMutability": "nonpayable",
      "type": "function"
    },
    {
      "inputs": [],
      "name": "availableEmission",
      "outputs": [
        {
          "internalType": "uint256",
          "name": "amount",
          "type": "uint256"
        }
      ],
      "stateMutability": "view",
      "type": "function"
    },
    {
      "inputs": [
        {
          "internalType": "address",
          "name": "account",
          "type": "address"
        }
      ],
      "name": "balanceOf",
      "outputs": [
        {
          "internalType": "uint256",
          "name": "",
          "type": "uint256"
        }
      ],
      "stateMutability": "view",
      "type": "function"
    },
    {
      "inputs": [],
      "name": "claimEmission",
      "outputs": [],
      "stateMutability": "nonpayable",
      "type": "function"
    },
    {
      "inputs": [],
      "name": "decimals",
      "outputs": [
        {
          "internalType": "uint8",
          "name": "",
          "type": "uint8"
        }
      ],
      "stateMutability": "view",
      "type": "function"
    },
    {
      "inputs": [
        {
          "internalType": "address",
          "name": "spender",
          "type": "address"
        },
        {
          "internalType": "uint256",
          "name": "subtractedValue",
          "type": "uint256"
        }
      ],
      "name": "decreaseAllowance",
      "outputs": [
        {
          "internalType": "bool",
          "name": "",
          "type": "bool"
        }
      ],
      "stateMutability": "nonpayable",
      "type": "function"
    },
    {
      "inputs": [
        {
          "internalType": "address",
          "name": "spender",
          "type": "address"
        },
        {
          "internalType": "uint256",
          "name": "addedValue",
          "type": "uint256"
        }
      ],
      "name": "increaseAllowance",
      "outputs": [
        {
          "internalType": "bool",
          "name": "",
          "type": "bool"
        }
      ],
      "stateMutability": "nonpayable",
      "type": "function"
    },
    {
      "inputs": [],
      "name": "name",
      "outputs": [
        {
          "internalType": "string",
          "name": "",
          "type": "string"
        }
      ],
      "stateMutability": "view",
      "type": "function"
    },
    {
      "inputs": [],
      "name": "nextEmissionTime",
      "outputs": [
        {
          "internalType": "uint256",
          "name": "",
          "type": "uint256"
        }
      ],
      "stateMutability": "view",
      "type": "function"
    },
    {
      "inputs": [],
      "name": "owner",
      "outputs": [
        {
          "internalType": "address",
          "name": "",
          "type": "address"
        }
      ],
      "stateMutability": "view",
      "type": "function"
    },
    {
      "inputs": [
        {
          "internalType": "address",
          "name": "_token",
          "type": "address"
        }
      ],
      "name": "recoverERC20",
      "outputs": [],
      "stateMutability": "nonpayable",
      "type": "function"
    },
    {
      "inputs": [],
      "name": "renounceOwnership",
      "outputs": [],
      "stateMutability": "nonpayable",
      "type": "function"
    },
    {
      "inputs": [
        {
          "internalType": "uint256",
          "name": "_bp",
          "type": "uint256"
        }
      ],
      "name": "setEmissionPerYearBp",
      "outputs": [],
      "stateMutability": "nonpayable",
      "type": "function"
    },
    {
      "inputs": [],
      "name": "symbol",
      "outputs": [
        {
          "internalType": "string",
          "name": "",
          "type": "string"
        }
      ],
      "stateMutability": "view",
      "type": "function"
    },
    {
      "inputs": [],
      "name": "totalSupply",
      "outputs": [
        {
          "internalType": "uint256",
          "name": "",
          "type": "uint256"
        }
      ],
      "stateMutability": "view",
      "type": "function"
    },
    {
      "inputs": [
        {
          "internalType": "address",
          "name": "recipient",
          "type": "address"
        },
        {
          "internalType": "uint256",
          "name": "amount",
          "type": "uint256"
        }
      ],
      "name": "transfer",
      "outputs": [
        {
          "internalType": "bool",
          "name": "",
          "type": "bool"
        }
      ],
      "stateMutability": "nonpayable",
      "type": "function"
    },
    {
      "inputs": [
        {
          "internalType": "address",
          "name": "sender",
          "type": "address"
        },
        {
          "internalType": "address",
          "name": "recipient",
          "type": "address"
        },
        {
          "internalType": "uint256",
          "name": "amount",
          "type": "uint256"
        }
      ],
      "name": "transferFrom",
      "outputs": [
        {
          "internalType": "bool",
          "name": "",
          "type": "bool"
        }
      ],
      "stateMutability": "nonpayable",
      "type": "function"
    },
    {
      "inputs": [
        {
          "internalType": "address",
          "name": "newOwner",
          "type": "address"
        }
      ],
      "name": "transferOwnership",
      "outputs": [],
      "stateMutability": "nonpayable",
      "type": "function"
    }
  ],
  "transactionHash": "0x164a49b24e3eff788be5e7d402b9287b1cd35e548dc5584cccc8c30d5b611e1c",
  "args": [
    "1000000000000000000000000000",
    "0x9C35571380B72E78290fCFfd73b84b370904b988"
  ],
  "solcInputHash": "c150cabaf9c729e52ca495d3347c6623",
  "bytecode": "0x60806040526101f460075560006008553480156200001c57600080fd5b5060405162001a4d38038062001a4d833981810160405260408110156200004257600080fd5b508051602091820151604080518082018252600680825265155b999bdb1960d21b82870152825180840190935282526515539193d31160d21b948201949094529192909160006200009262000147565b600080546001600160a01b0319166001600160a01b03831690811782556040519293509160008051602062001a2d833981519152908290a3508151620000e0906004906020850190620003de565b508051620000f6906005906020840190620003de565b50506006805460ff19166012179055506200011281836200014b565b6200011d816200025e565b6200013b6305a39a80426200036860201b62000b611790919060201c565b600855506200047a9050565b3390565b6001600160a01b038216620001a7576040805162461bcd60e51b815260206004820152601f60248201527f45524332303a206d696e7420746f20746865207a65726f206164647265737300604482015290519081900360640190fd5b620001b560008383620003ca565b620001d1816003546200036860201b62000b611790919060201c565b6003556001600160a01b0382166000908152600160209081526040909120546200020691839062000b6162000368821b17901c565b6001600160a01b03831660008181526001602090815260408083209490945583518581529351929391927fddf252ad1be2c89b69c2b068fc378daa952ba7f163c4a11628f55a4df523b3ef9281900390910190a35050565b6200026862000147565b6001600160a01b03166200027b620003cf565b6001600160a01b031614620002d7576040805162461bcd60e51b815260206004820181905260248201527f4f776e61626c653a2063616c6c6572206973206e6f7420746865206f776e6572604482015290519081900360640190fd5b6001600160a01b0381166200031e5760405162461bcd60e51b815260040180806020018281038252602681526020018062001a076026913960400191505060405180910390fd5b600080546040516001600160a01b038085169392169160008051602062001a2d83398151915291a3600080546001600160a01b0319166001600160a01b0392909216919091179055565b600082820183811015620003c3576040805162461bcd60e51b815260206004820152601b60248201527f536166654d6174683a206164646974696f6e206f766572666c6f770000000000604482015290519081900360640190fd5b9392505050565b505050565b6000546001600160a01b031690565b828054600181600116156101000203166002900490600052602060002090601f016020900481019282601f106200042157805160ff191683800117855562000451565b8280016001018555821562000451579182015b828111156200045157825182559160200191906001019062000434565b506200045f92915062000463565b5090565b5b808211156200045f576000815560010162000464565b61157d806200048a6000396000f3fe608060405234801561001057600080fd5b506004361061014d5760003560e01c80638d531d35116100c3578063a9059cbb1161007c578063a9059cbb14610394578063ca48885a146103c0578063cc582739146103c8578063dd62ed3e146103d0578063f2fde38b146103fe578063fb8632b8146104245761014d565b80638d531d35146103065780638da5cb5b1461030e57806395d89b41146103325780639d5df4fb1461033a5780639e8c708e14610342578063a457c2d7146103685761014d565b8063313310ad11610115578063313310ad14610267578063313ce56714610271578063395093511461028f57806370a08231146102bb578063715018a6146102e157806375e086d8146102e95761014d565b806306fdde0314610152578063095ea7b3146101cf5780630dc0ba721461020f57806318160ddd1461022957806323b872dd14610231575b600080fd5b61015a61042c565b6040805160208082528351818301528351919283929083019185019080838360005b8381101561019457818101518382015260200161017c565b50505050905090810190601f1680156101c15780820380516001836020036101000a031916815260200191505b509250505060405180910390f35b6101fb600480360360408110156101e557600080fd5b506001600160a01b0381351690602001356104c3565b604080519115158252519081900360200190f35b6102176104e1565b60408051918252519081900360200190f35b6102176104e9565b6101fb6004803603606081101561024757600080fd5b506001600160a01b038135811691602081013590911690604001356104ef565b61026f610577565b005b610279610644565b6040805160ff9092168252519081900360200190f35b6101fb600480360360408110156102a557600080fd5b506001600160a01b03813516906020013561064d565b610217600480360360208110156102d157600080fd5b50356001600160a01b031661069b565b61026f6106b6565b61026f600480360360208110156102ff57600080fd5b5035610762565b61021761080a565b610316610812565b604080516001600160a01b039092168252519081900360200190f35b61015a610821565b610217610882565b61026f6004803603602081101561035857600080fd5b50356001600160a01b0316610888565b6101fb6004803603604081101561037e57600080fd5b506001600160a01b03813516906020013561097b565b6101fb600480360360408110156103aa57600080fd5b506001600160a01b0381351690602001356109e3565b6102176109f7565b6102176109fd565b610217600480360360408110156103e657600080fd5b506001600160a01b0381358116916020013516610a03565b61026f6004803603602081101561041457600080fd5b50356001600160a01b0316610a2e565b610217610b30565b60048054604080516020601f60026000196101006001881615020190951694909404938401819004810282018101909252828152606093909290918301828280156104b85780601f1061048d576101008083540402835291602001916104b8565b820191906000526020600020905b81548152906001019060200180831161049b57829003601f168201915b505050505090505b90565b60006104d76104d0610bbb565b8484610bbf565b5060015b92915050565b6301e1338081565b60035490565b60006104fc848484610cab565b61056c84610508610bbb565b61056785604051806060016040528060288152602001611411602891396001600160a01b038a16600090815260026020526040812090610546610bbb565b6001600160a01b031681526020810191909152604001600020549190610e08565b610bbf565b5060015b9392505050565b61057f610bbb565b6001600160a01b0316610590610812565b6001600160a01b0316146105d9576040805162461bcd60e51b81526020600482018190526024820152600080516020611439833981519152604482015290519081900360640190fd5b42600854106106195760405162461bcd60e51b81526004018080602001828103825260228152602001806114a26022913960400191505060405180910390fd5b610631610624610bbb565b61062c610b30565b610e9f565b61063f426301e13380610b61565b600855565b60065460ff1690565b60006104d761065a610bbb565b84610567856002600061066b610bbb565b6001600160a01b03908116825260208083019390935260409182016000908120918c168152925290205490610b61565b6001600160a01b031660009081526001602052604090205490565b6106be610bbb565b6001600160a01b03166106cf610812565b6001600160a01b031614610718576040805162461bcd60e51b81526020600482018190526024820152600080516020611439833981519152604482015290519081900360640190fd5b600080546040516001600160a01b03909116907f8be0079c531659141344cd1fd0a4f28419497f9722a3daafe3b4186f6b6457e0908390a3600080546001600160a01b0319169055565b61076a610bbb565b6001600160a01b031661077b610812565b6001600160a01b0316146107c4576040805162461bcd60e51b81526020600482018190526024820152600080516020611439833981519152604482015290519081900360640190fd5b6101f48111156108055760405162461bcd60e51b81526004018080602001828103825260358152602001806115136035913960400191505060405180910390fd5b600755565b6305a39a8081565b6000546001600160a01b031690565b60058054604080516020601f60026000196101006001881615020190951694909404938401819004810282018101909252828152606093909290918301828280156104b85780601f1061048d576101008083540402835291602001916104b8565b60085481565b610890610bbb565b6001600160a01b03166108a1610812565b6001600160a01b0316146108ea576040805162461bcd60e51b81526020600482018190526024820152600080516020611439833981519152604482015290519081900360640190fd5b6109786108f5610bbb565b604080516370a0823160e01b815230600482015290516001600160a01b038516916370a08231916024808301926020929190829003018186803b15801561093b57600080fd5b505afa15801561094f573d6000803e3d6000fd5b505050506040513d602081101561096557600080fd5b50516001600160a01b0384169190610f91565b50565b60006104d7610988610bbb565b84610567856040518060600160405280602581526020016114ee60259139600260006109b2610bbb565b6001600160a01b03908116825260208083019390935260409182016000908120918d16815292529020549190610e08565b60006104d76109f0610bbb565b8484610cab565b6101f481565b60075481565b6001600160a01b03918216600090815260026020908152604080832093909416825291909152205490565b610a36610bbb565b6001600160a01b0316610a47610812565b6001600160a01b031614610a90576040805162461bcd60e51b81526020600482018190526024820152600080516020611439833981519152604482015290519081900360640190fd5b6001600160a01b038116610ad55760405162461bcd60e51b815260040180806020018281038252602681526020018061135c6026913960400191505060405180910390fd5b600080546040516001600160a01b03808516939216917f8be0079c531659141344cd1fd0a4f28419497f9722a3daafe3b4186f6b6457e091a3600080546001600160a01b0319166001600160a01b0392909216919091179055565b60004260085410156104c057610b5c612710610b56600754610b506104e9565b90610fe8565b90611041565b905090565b600082820183811015610570576040805162461bcd60e51b815260206004820152601b60248201527f536166654d6174683a206164646974696f6e206f766572666c6f770000000000604482015290519081900360640190fd5b3390565b6001600160a01b038316610c045760405162461bcd60e51b815260040180806020018281038252602481526020018061147e6024913960400191505060405180910390fd5b6001600160a01b038216610c495760405162461bcd60e51b81526004018080602001828103825260228152602001806113826022913960400191505060405180910390fd5b6001600160a01b03808416600081815260026020908152604080832094871680845294825291829020859055815185815291517f8c5be1e5ebec7d5bd14f71427d1e84f3dd0314c0f7b2291e5b200ac8c7c3b9259281900390910190a3505050565b6001600160a01b038316610cf05760405162461bcd60e51b81526004018080602001828103825260258152602001806114596025913960400191505060405180910390fd5b6001600160a01b038216610d355760405162461bcd60e51b81526004018080602001828103825260238152602001806113396023913960400191505060405180910390fd5b610d40838383610fe3565b610d7d816040518060600160405280602681526020016113a4602691396001600160a01b0386166000908152600160205260409020549190610e08565b6001600160a01b038085166000908152600160205260408082209390935590841681522054610dac9082610b61565b6001600160a01b0380841660008181526001602090815260409182902094909455805185815290519193928716927fddf252ad1be2c89b69c2b068fc378daa952ba7f163c4a11628f55a4df523b3ef92918290030190a3505050565b60008184841115610e975760405162461bcd60e51b81526004018080602001828103825283818151815260200191508051906020019080838360005b83811015610e5c578181015183820152602001610e44565b50505050905090810190601f168015610e895780820380516001836020036101000a031916815260200191505b509250505060405180910390fd5b505050900390565b6001600160a01b038216610efa576040805162461bcd60e51b815260206004820152601f60248201527f45524332303a206d696e7420746f20746865207a65726f206164647265737300604482015290519081900360640190fd5b610f0660008383610fe3565b600354610f139082610b61565b6003556001600160a01b038216600090815260016020526040902054610f399082610b61565b6001600160a01b03831660008181526001602090815260408083209490945583518581529351929391927fddf252ad1be2c89b69c2b068fc378daa952ba7f163c4a11628f55a4df523b3ef9281900390910190a35050565b604080516001600160a01b038416602482015260448082018490528251808303909101815260649091019091526020810180516001600160e01b031663a9059cbb60e01b179052610fe39084906110a8565b505050565b600082610ff7575060006104db565b8282028284828161100457fe5b04146105705760405162461bcd60e51b81526004018080602001828103825260218152602001806113f06021913960400191505060405180910390fd5b6000808211611097576040805162461bcd60e51b815260206004820152601a60248201527f536166654d6174683a206469766973696f6e206279207a65726f000000000000604482015290519081900360640190fd5b8183816110a057fe5b049392505050565b60606110fd826040518060400160405280602081526020017f5361666545524332303a206c6f772d6c6576656c2063616c6c206661696c6564815250856001600160a01b03166111599092919063ffffffff16565b805190915015610fe35780806020019051602081101561111c57600080fd5b5051610fe35760405162461bcd60e51b815260040180806020018281038252602a8152602001806114c4602a913960400191505060405180910390fd5b60606111688484600085611170565b949350505050565b6060824710156111b15760405162461bcd60e51b81526004018080602001828103825260268152602001806113ca6026913960400191505060405180910390fd5b6111ba856112cc565b61120b576040805162461bcd60e51b815260206004820152601d60248201527f416464726573733a2063616c6c20746f206e6f6e2d636f6e7472616374000000604482015290519081900360640190fd5b60006060866001600160a01b031685876040518082805190602001908083835b6020831061124a5780518252601f19909201916020918201910161122b565b6001836020036101000a03801982511681845116808217855250505050505090500191505060006040518083038185875af1925050503d80600081146112ac576040519150601f19603f3d011682016040523d82523d6000602084013e6112b1565b606091505b50915091506112c18282866112d2565b979650505050505050565b3b151590565b606083156112e1575081610570565b8251156112f15782518084602001fd5b60405162461bcd60e51b8152602060048201818152845160248401528451859391928392604401919085019080838360008315610e5c578181015183820152602001610e4456fe45524332303a207472616e7366657220746f20746865207a65726f20616464726573734f776e61626c653a206e6577206f776e657220697320746865207a65726f206164647265737345524332303a20617070726f766520746f20746865207a65726f206164647265737345524332303a207472616e7366657220616d6f756e7420657863656564732062616c616e6365416464726573733a20696e73756666696369656e742062616c616e636520666f722063616c6c536166654d6174683a206d756c7469706c69636174696f6e206f766572666c6f7745524332303a207472616e7366657220616d6f756e74206578636565647320616c6c6f77616e63654f776e61626c653a2063616c6c6572206973206e6f7420746865206f776e657245524332303a207472616e736665722066726f6d20746865207a65726f206164647265737345524332303a20617070726f76652066726f6d20746865207a65726f2061646472657373556e666f6c643a20456d697373696f6e206e6f7420617661696c61626c65207965745361666545524332303a204552433230206f7065726174696f6e20646964206e6f74207375636365656445524332303a2064656372656173656420616c6c6f77616e63652062656c6f77207a65726f556e666f6c643a20456d697373696f6e207065722079656172206774204d41585f454d495353494f4e5f5045525f594541525f4250a2646970667358221220446844b7fc3e99f303cd457a96d6b59bec317973906bda13232b120d6ed3237a64736f6c634300060c00334f776e61626c653a206e6577206f776e657220697320746865207a65726f20616464726573738be0079c531659141344cd1fd0a4f28419497f9722a3daafe3b4186f6b6457e0",
  "devdoc": {
    "kind": "dev",
    "methods": {
      "allowance(address,address)": {
        "details": "See {IERC20-allowance}."
      },
      "approve(address,uint256)": {
        "details": "See {IERC20-approve}. Requirements: - `spender` cannot be the zero address."
      },
      "balanceOf(address)": {
        "details": "See {IERC20-balanceOf}."
      },
      "decimals()": {
        "details": "Returns the number of decimals used to get its user representation. For example, if `decimals` equals `2`, a balance of `505` tokens should be displayed to a user as `5,05` (`505 / 10 ** 2`). Tokens usually opt for a value of 18, imitating the relationship between Ether and Wei. This is the value {ERC20} uses, unless {_setupDecimals} is called. NOTE: This information is only used for _display_ purposes: it in no way affects any of the arithmetic of the contract, including {IERC20-balanceOf} and {IERC20-transfer}."
      },
      "decreaseAllowance(address,uint256)": {
        "details": "Atomically decreases the allowance granted to `spender` by the caller. This is an alternative to {approve} that can be used as a mitigation for problems described in {IERC20-approve}. Emits an {Approval} event indicating the updated allowance. Requirements: - `spender` cannot be the zero address. - `spender` must have allowance for the caller of at least `subtractedValue`."
      },
      "increaseAllowance(address,uint256)": {
        "details": "Atomically increases the allowance granted to `spender` by the caller. This is an alternative to {approve} that can be used as a mitigation for problems described in {IERC20-approve}. Emits an {Approval} event indicating the updated allowance. Requirements: - `spender` cannot be the zero address."
      },
      "name()": {
        "details": "Returns the name of the token."
      },
      "owner()": {
        "details": "Returns the address of the current owner."
      },
      "renounceOwnership()": {
        "details": "Leaves the contract without owner. It will not be possible to call `onlyOwner` functions anymore. Can only be called by the current owner. NOTE: Renouncing ownership will leave the contract without an owner, thereby removing any functionality that is only available to the owner."
      },
      "symbol()": {
        "details": "Returns the symbol of the token, usually a shorter version of the name."
      },
      "totalSupply()": {
        "details": "See {IERC20-totalSupply}."
      },
      "transfer(address,uint256)": {
        "details": "See {IERC20-transfer}. Requirements: - `recipient` cannot be the zero address. - the caller must have a balance of at least `amount`."
      },
      "transferFrom(address,address,uint256)": {
        "details": "See {IERC20-transferFrom}. Emits an {Approval} event indicating the updated allowance. This is not required by the EIP. See the note at the beginning of {ERC20}. Requirements: - `sender` and `recipient` cannot be the zero address. - `sender` must have a balance of at least `amount`. - the caller must have allowance for ``sender``'s tokens of at least `amount`."
      },
      "transferOwnership(address)": {
        "details": "Transfers ownership of the contract to a new account (`newOwner`). Can only be called by the current owner."
      }
    },
    "version": 1
  },
  "userdoc": {
    "kind": "user",
    "methods": {},
    "version": 1
  },
  "storageLayout": {
    "storage": [
      {
        "astId": 7,
        "contract": "contracts/token/UnfoldToken.sol:Unfold",
        "label": "_owner",
        "offset": 0,
        "slot": "0",
        "type": "t_address"
      },
      {
        "astId": 554,
        "contract": "contracts/token/UnfoldToken.sol:Unfold",
        "label": "_balances",
        "offset": 0,
        "slot": "1",
        "type": "t_mapping(t_address,t_uint256)"
      },
      {
        "astId": 560,
        "contract": "contracts/token/UnfoldToken.sol:Unfold",
        "label": "_allowances",
        "offset": 0,
        "slot": "2",
        "type": "t_mapping(t_address,t_mapping(t_address,t_uint256))"
      },
      {
        "astId": 562,
        "contract": "contracts/token/UnfoldToken.sol:Unfold",
        "label": "_totalSupply",
        "offset": 0,
        "slot": "3",
        "type": "t_uint256"
      },
      {
        "astId": 564,
        "contract": "contracts/token/UnfoldToken.sol:Unfold",
        "label": "_name",
        "offset": 0,
        "slot": "4",
        "type": "t_string_storage"
      },
      {
        "astId": 566,
        "contract": "contracts/token/UnfoldToken.sol:Unfold",
        "label": "_symbol",
        "offset": 0,
        "slot": "5",
        "type": "t_string_storage"
      },
      {
        "astId": 568,
        "contract": "contracts/token/UnfoldToken.sol:Unfold",
        "label": "_decimals",
        "offset": 0,
        "slot": "6",
        "type": "t_uint8"
      },
      {
        "astId": 2740,
        "contract": "contracts/token/UnfoldToken.sol:Unfold",
        "label": "EMISSION_PER_YEAR_BP",
        "offset": 0,
        "slot": "7",
        "type": "t_uint256"
      },
      {
        "astId": 2749,
        "contract": "contracts/token/UnfoldToken.sol:Unfold",
        "label": "nextEmissionTime",
        "offset": 0,
        "slot": "8",
        "type": "t_uint256"
      }
    ],
    "types": {
      "t_address": {
        "encoding": "inplace",
        "label": "address",
        "numberOfBytes": "20"
      },
      "t_mapping(t_address,t_mapping(t_address,t_uint256))": {
        "encoding": "mapping",
        "key": "t_address",
        "label": "mapping(address => mapping(address => uint256))",
        "numberOfBytes": "32",
        "value": "t_mapping(t_address,t_uint256)"
      },
      "t_mapping(t_address,t_uint256)": {
        "encoding": "mapping",
        "key": "t_address",
        "label": "mapping(address => uint256)",
        "numberOfBytes": "32",
        "value": "t_uint256"
      },
      "t_string_storage": {
        "encoding": "bytes",
        "label": "string",
        "numberOfBytes": "32"
      },
      "t_uint256": {
        "encoding": "inplace",
        "label": "uint256",
        "numberOfBytes": "32"
      },
      "t_uint8": {
        "encoding": "inplace",
        "label": "uint8",
        "numberOfBytes": "1"
      }
    }
  }
}