{
  "address": "0x6f79D18E94047974CCA5f1DfAC63b3955DDC6a7a",
  "abi": [
    {
      "inputs": [
        {
          "internalType": "contract IERC20",
          "name": "_poolToken",
          "type": "address"
        },
        {
          "internalType": "contract IERC20",
          "name": "_rewardToken",
          "type": "address"
        },
        {
          "internalType": "uint256",
          "name": "_duration",
          "type": "uint256"
        },
        {
          "internalType": "address payable",
          "name": "_feeBeneficiar",
          "type": "address"
        }
      ],
      "stateMutability": "nonpayable",
      "type": "constructor"
    },
    {
      "anonymous": false,
      "inputs": [
        {
          "indexed": true,
          "internalType": "address",
          "name": "beneficiar",
          "type": "address"
        }
      ],
      "name": "FeeBeneficiarUpdated",
      "type": "event"
    },
    {
      "anonymous": false,
      "inputs": [
        {
          "indexed": true,
          "internalType": "address",
          "name": "previousOwner",
          "type": "address"
        },
        {
          "indexed": true,
          "internalType": "address",
          "name": "newOwner",
          "type": "address"
        }
      ],
      "name": "OwnershipTransferred",
      "type": "event"
    },
    {
      "anonymous": false,
      "inputs": [
        {
          "indexed": false,
          "internalType": "uint256",
          "name": "reward",
          "type": "uint256"
        }
      ],
      "name": "RewardAdded",
      "type": "event"
    },
    {
      "anonymous": false,
      "inputs": [
        {
          "indexed": true,
          "internalType": "address",
          "name": "user",
          "type": "address"
        },
        {
          "indexed": false,
          "internalType": "uint256",
          "name": "reward",
          "type": "uint256"
        }
      ],
      "name": "RewardPaid",
      "type": "event"
    },
    {
      "anonymous": false,
      "inputs": [
        {
          "indexed": true,
          "internalType": "address",
          "name": "user",
          "type": "address"
        },
        {
          "indexed": false,
          "internalType": "uint256",
          "name": "amount",
          "type": "uint256"
        }
      ],
      "name": "Staked",
      "type": "event"
    },
    {
      "anonymous": false,
      "inputs": [
        {
          "indexed": true,
          "internalType": "address",
          "name": "user",
          "type": "address"
        },
        {
          "indexed": false,
          "internalType": "uint256",
          "name": "amount",
          "type": "uint256"
        }
      ],
      "name": "Withdrawn",
      "type": "event"
    },
    {
      "inputs": [],
      "name": "FEE_BASE",
      "outputs": [
        {
          "internalType": "uint256",
          "name": "",
          "type": "uint256"
        }
      ],
      "stateMutability": "view",
      "type": "function"
    },
    {
      "inputs": [
        {
          "internalType": "uint256",
          "name": "reward",
          "type": "uint256"
        }
      ],
      "name": "addReward",
      "outputs": [],
      "stateMutability": "nonpayable",
      "type": "function"
    },
    {
      "inputs": [
        {
          "internalType": "address",
          "name": "account",
          "type": "address"
        }
      ],
      "name": "balanceOf",
      "outputs": [
        {
          "internalType": "uint256",
          "name": "",
          "type": "uint256"
        }
      ],
      "stateMutability": "view",
      "type": "function"
    },
    {
      "inputs": [
        {
          "internalType": "uint256",
          "name": "_despositTime",
          "type": "uint256"
        }
      ],
      "name": "calculateWithdrawalFeeBp",
      "outputs": [
        {
          "internalType": "uint256",
          "name": "",
          "type": "uint256"
        }
      ],
      "stateMutability": "view",
      "type": "function"
    },
    {
      "inputs": [],
      "name": "duration",
      "outputs": [
        {
          "internalType": "uint256",
          "name": "",
          "type": "uint256"
        }
      ],
      "stateMutability": "view",
      "type": "function"
    },
    {
      "inputs": [
        {
          "internalType": "address",
          "name": "account",
          "type": "address"
        }
      ],
      "name": "earned",
      "outputs": [
        {
          "internalType": "uint256",
          "name": "",
          "type": "uint256"
        }
      ],
      "stateMutability": "view",
      "type": "function"
    },
    {
      "inputs": [],
      "name": "exit",
      "outputs": [],
      "stateMutability": "nonpayable",
      "type": "function"
    },
    {
      "inputs": [],
      "name": "feeBeneficiar",
      "outputs": [
        {
          "internalType": "address payable",
          "name": "",
          "type": "address"
        }
      ],
      "stateMutability": "view",
      "type": "function"
    },
    {
      "inputs": [],
      "name": "getReward",
      "outputs": [],
      "stateMutability": "nonpayable",
      "type": "function"
    },
    {
      "inputs": [
        {
          "internalType": "address",
          "name": "",
          "type": "address"
        }
      ],
      "name": "lastDepositTime",
      "outputs": [
        {
          "internalType": "uint256",
          "name": "",
          "type": "uint256"
        }
      ],
      "stateMutability": "view",
      "type": "function"
    },
    {
      "inputs": [],
      "name": "lastTimeRewardApplicable",
      "outputs": [
        {
          "internalType": "uint256",
          "name": "",
          "type": "uint256"
        }
      ],
      "stateMutability": "view",
      "type": "function"
    },
    {
      "inputs": [],
      "name": "lastUpdateTime",
      "outputs": [
        {
          "internalType": "uint256",
          "name": "",
          "type": "uint256"
        }
      ],
      "stateMutability": "view",
      "type": "function"
    },
    {
      "inputs": [],
      "name": "minWithdrawFeeBp",
      "outputs": [
        {
          "internalType": "uint256",
          "name": "",
          "type": "uint256"
        }
      ],
      "stateMutability": "view",
      "type": "function"
    },
    {
      "inputs": [],
      "name": "owner",
      "outputs": [
        {
          "internalType": "address",
          "name": "",
          "type": "address"
        }
      ],
      "stateMutability": "view",
      "type": "function"
    },
    {
      "inputs": [],
      "name": "periodFinish",
      "outputs": [
        {
          "internalType": "uint256",
          "name": "",
          "type": "uint256"
        }
      ],
      "stateMutability": "view",
      "type": "function"
    },
    {
      "inputs": [],
      "name": "poolToken",
      "outputs": [
        {
          "internalType": "contract IERC20",
          "name": "",
          "type": "address"
        }
      ],
      "stateMutability": "view",
      "type": "function"
    },
    {
      "inputs": [],
      "name": "renounceOwnership",
      "outputs": [],
      "stateMutability": "nonpayable",
      "type": "function"
    },
    {
      "inputs": [],
      "name": "rewardPerToken",
      "outputs": [
        {
          "internalType": "uint256",
          "name": "",
          "type": "uint256"
        }
      ],
      "stateMutability": "view",
      "type": "function"
    },
    {
      "inputs": [],
      "name": "rewardPerTokenStored",
      "outputs": [
        {
          "internalType": "uint256",
          "name": "",
          "type": "uint256"
        }
      ],
      "stateMutability": "view",
      "type": "function"
    },
    {
      "inputs": [],
      "name": "rewardRate",
      "outputs": [
        {
          "internalType": "uint256",
          "name": "",
          "type": "uint256"
        }
      ],
      "stateMutability": "view",
      "type": "function"
    },
    {
      "inputs": [],
      "name": "rewardToken",
      "outputs": [
        {
          "internalType": "contract IERC20",
          "name": "",
          "type": "address"
        }
      ],
      "stateMutability": "view",
      "type": "function"
    },
    {
      "inputs": [
        {
          "internalType": "address",
          "name": "",
          "type": "address"
        }
      ],
      "name": "rewards",
      "outputs": [
        {
          "internalType": "uint256",
          "name": "",
          "type": "uint256"
        }
      ],
      "stateMutability": "view",
      "type": "function"
    },
    {
      "inputs": [
        {
          "internalType": "uint256",
          "name": "_amount",
          "type": "uint256"
        }
      ],
      "name": "stake",
      "outputs": [],
      "stateMutability": "nonpayable",
      "type": "function"
    },
    {
      "inputs": [],
      "name": "totalSupply",
      "outputs": [
        {
          "internalType": "uint256",
          "name": "",
          "type": "uint256"
        }
      ],
      "stateMutability": "view",
      "type": "function"
    },
    {
      "inputs": [
        {
          "internalType": "address",
          "name": "newOwner",
          "type": "address"
        }
      ],
      "name": "transferOwnership",
      "outputs": [],
      "stateMutability": "nonpayable",
      "type": "function"
    },
    {
      "inputs": [
        {
          "internalType": "address payable",
          "name": "_feeBeneficiar",
          "type": "address"
        }
      ],
      "name": "updateFeeBeneficiar",
      "outputs": [],
      "stateMutability": "nonpayable",
      "type": "function"
    },
    {
      "inputs": [
        {
          "internalType": "address",
          "name": "",
          "type": "address"
        }
      ],
      "name": "userRewardPerTokenPaid",
      "outputs": [
        {
          "internalType": "uint256",
          "name": "",
          "type": "uint256"
        }
      ],
      "stateMutability": "view",
      "type": "function"
    },
    {
      "inputs": [
        {
          "internalType": "uint256",
          "name": "_amount",
          "type": "uint256"
        },
        {
          "internalType": "uint256",
          "name": "_",
          "type": "uint256"
        }
      ],
      "name": "withdraw",
      "outputs": [],
      "stateMutability": "nonpayable",
      "type": "function"
    }
  ],
  "transactionHash": "0xb3fa28ad9ad3438d3f57a71968f88a07fbd6d07920efe983a0c1bad314a58497",
  "args": [
    "0xC02aaA39b223FE8D0A0e5C4F27eAD9083C756Cc2",
    "0x88888e29427CC66EC72da12D72797fB1393Fffff",
    8640000,
    "0x9C35571380B72E78290fCFfd73b84b370904b988"
  ],
  "solcInputHash": "c150cabaf9c729e52ca495d3347c6623",
  "bytecode": "0x60806040526000600655600060075534801561001a57600080fd5b506040516115db3803806115db8339818101604052608081101561003d57600080fd5b50805160208201516040830151606090930151600080546001600160a01b0319166001600160a01b038516178155929391926100776100fd565b600380546001600160a01b0319166001600160a01b038316908117909155604051919250906000907f8be0079c531659141344cd1fd0a4f28419497f9722a3daafe3b4186f6b6457e0908290a350600480546001600160a01b039485166001600160a01b031991821617909155600592909255600d805491909316911617905550610101565b3390565b6114cb806101106000396000f3fe608060405234801561001057600080fd5b50600436106101c35760003560e01c806380faa57d116100f9578063cd3daf9d11610097578063ebe2b12b11610071578063ebe2b12b146103c6578063ecefc705146103ce578063f2fde38b146103d6578063f7c618c1146103fc576101c3565b8063cd3daf9d146103ae578063df136d65146103b6578063e9fad8ee146103be576101c3565b80638da5cb5b116100d35780638da5cb5b14610379578063a694fc3a14610381578063c8f33c911461039e578063cbdf382c146103a6576101c3565b806380faa57d1461032757806383725b0e1461032f5780638b87634714610353576101c3565b8063441a3e7011610166578063715018a611610140578063715018a6146102f257806373dbf9f4146102fa57806374de4ec4146103025780637b0a47ee1461031f576101c3565b8063441a3e70146102835780634fe8d701146102a657806370a08231146102cc576101c3565b80630fb5a6b4116101a25780630fb5a6b41461024c57806318160ddd14610254578063199a0fa81461025c5780633d18b91214610279576101c3565b80628cc262146101c857806302527753146102005780630700037d14610226575b600080fd5b6101ee600480360360208110156101de57600080fd5b50356001600160a01b0316610404565b60408051918252519081900360200190f35b6101ee6004803603602081101561021657600080fd5b50356001600160a01b0316610472565b6101ee6004803603602081101561023c57600080fd5b50356001600160a01b0316610484565b6101ee610496565b6101ee61049c565b6101ee6004803603602081101561027257600080fd5b50356104a3565b61028161054a565b005b6102816004803603604081101561029957600080fd5b508035906020013561061c565b610281600480360360208110156102bc57600080fd5b50356001600160a01b03166107bd565b6101ee600480360360208110156102e257600080fd5b50356001600160a01b03166108ae565b6102816108c9565b6101ee610975565b6102816004803603602081101561031857600080fd5b503561097a565b6101ee610ae7565b6101ee610aed565b610337610b00565b604080516001600160a01b039092168252519081900360200190f35b6101ee6004803603602081101561036957600080fd5b50356001600160a01b0316610b0f565b610337610b21565b6102816004803603602081101561039757600080fd5b5035610b30565b6101ee610c35565b610337610c3b565b6101ee610c4a565b6101ee610c98565b610281610c9e565b6101ee610cc2565b6101ee610cc8565b610281600480360360208110156103ec57600080fd5b50356001600160a01b0316610cce565b610337610dd1565b6001600160a01b0381166000908152600b6020908152604080832054600a90925282205461046c919061046690670de0b6b3a764000090610460906104519061044b610c4a565b90610de0565b61045a886108ae565b90610e3d565b90610e9d565b90610f04565b92915050565b600c6020526000908152604090205481565b600b6020526000908152604090205481565b60055481565b6001545b90565b60006064816104b24285610de0565b905062093a808110156104d1576104ca826005610e3d565b9150610543565b62093a8081101580156104e657506212750081105b156104f6576104ca826004610e3d565b62127500811015801561050b5750621baf8081105b1561051b576104ca826003610e3d565b621baf80811015801561053057506224ea0081105b1561054357610540826002610e3d565b91505b5092915050565b33610553610c4a565b60095561055e610aed565b6008556001600160a01b038116156105a55761057981610404565b6001600160a01b0382166000908152600b6020908152604080832093909355600954600a909152919020555b60006105b033610404565b9050801561061857336000818152600b60205260408120556004546105e1916001600160a01b039091169083610f5e565b60408051828152905133917fe2403640ba68fed3a2f88b7557551d1993f84b99bb10ff833f0cf8db0c5e0486919081900360200190a25b5050565b33610625610c4a565b600955610630610aed565b6008556001600160a01b038116156106775761064b81610404565b6001600160a01b0382166000908152600b6020908152604080832093909355600954600a909152919020555b600083116106cc576040805162461bcd60e51b815260206004820152601d60248201527f556e666f6c64506f6f6c3a2063616e6e6f742077697468647261772030000000604482015290519081900360640190fd5b818314610720576040805162461bcd60e51b815260206004820152601f60248201527f556e666f6c64506f6f6c3a20706172616d732073686f756c6420626520657100604482015290519081900360640190fd5b336000908152600c6020526040812054610739906104a3565b905060006107478286610fb5565b905060006107558683610de0565b600d54600054919250610775916001600160a01b03908116911684610f5e565b61077f8682610fc7565b60408051828152905133917f7084f5476618d8e60b11ef0d7d3f06914655adb8793e28ff7f018d4c76d505d5919081900360200190a2505050505050565b6107c561101c565b6001600160a01b03166107d6610b21565b6001600160a01b03161461081f576040805162461bcd60e51b8152602060048201819052602482015260008051602061144c833981519152604482015290519081900360640190fd5b6001600160a01b0381166108645760405162461bcd60e51b815260040180806020018281038252602181526020018061142b6021913960400191505060405180910390fd5b600d80546001600160a01b0319166001600160a01b0383169081179091556040517fd1d47de4a57cc77fc7230b91c06532faf06a1485e840bd43ef755d6ca731a85990600090a250565b6001600160a01b031660009081526002602052604090205490565b6108d161101c565b6001600160a01b03166108e2610b21565b6001600160a01b03161461092b576040805162461bcd60e51b8152602060048201819052602482015260008051602061144c833981519152604482015290519081900360640190fd5b6003546040516000916001600160a01b0316907f8be0079c531659141344cd1fd0a4f28419497f9722a3daafe3b4186f6b6457e0908390a3600380546001600160a01b0319169055565b606481565b61098261101c565b6001600160a01b0316610993610b21565b6001600160a01b0316146109dc576040805162461bcd60e51b8152602060048201819052602482015260008051602061144c833981519152604482015290519081900360640190fd5b60006109e6610c4a565b6009556109f1610aed565b6008556001600160a01b03811615610a3857610a0c81610404565b6001600160a01b0382166000908152600b6020908152604080832093909355600954600a909152919020555b6006544210610a5757600554610a4f908390610e9d565b600755610a9a565b600654600090610a679042610de0565b90506000610a8060075483610e3d90919063ffffffff16565b600554909150610a94906104608684610f04565b60075550505b426008819055600554610aad9190610f04565b6006556040805183815290517fde88a922e0d3b88b24e9623efeb464919c6bf9f66857a65e2bfcf2ce87a9433d9181900360200190a15050565b60075481565b6000610afb42600654611020565b905090565b600d546001600160a01b031681565b600a6020526000908152604090205481565b6003546001600160a01b031690565b33610b39610c4a565b600955610b44610aed565b6008556001600160a01b03811615610b8b57610b5f81610404565b6001600160a01b0382166000908152600b6020908152604080832093909355600954600a909152919020555b60008211610be0576040805162461bcd60e51b815260206004820152601a60248201527f556e666f6c64506f6f6c3a2063616e6e6f74207374616b652030000000000000604482015290519081900360640190fd5b336000908152600c60205260409020429055610bfb82611036565b60408051838152905133917f9e71bc8eea02a63969f509818f2dafb9254532904319f9dbda79b67bd34a5f3d919081900360200190a25050565b60085481565b6000546001600160a01b031681565b6000610c5461049c565b610c6157506009546104a0565b610afb610c8f610c6f61049c565b610460670de0b6b3a764000061045a60075461045a60085461044b610aed565b60095490610f04565b60095481565b610cb8610caa336108ae565b610cb3336108ae565b61061c565b610cc061054a565b565b60065481565b61271081565b610cd661101c565b6001600160a01b0316610ce7610b21565b6001600160a01b031614610d30576040805162461bcd60e51b8152602060048201819052602482015260008051602061144c833981519152604482015290519081900360640190fd5b6001600160a01b038116610d755760405162461bcd60e51b81526004018080602001828103825260268152602001806113be6026913960400191505060405180910390fd5b6003546040516001600160a01b038084169216907f8be0079c531659141344cd1fd0a4f28419497f9722a3daafe3b4186f6b6457e090600090a3600380546001600160a01b0319166001600160a01b0392909216919091179055565b6004546001600160a01b031681565b600082821115610e37576040805162461bcd60e51b815260206004820152601e60248201527f536166654d6174683a207375627472616374696f6e206f766572666c6f770000604482015290519081900360640190fd5b50900390565b600082610e4c5750600061046c565b82820282848281610e5957fe5b0414610e965760405162461bcd60e51b815260040180806020018281038252602181526020018061140a6021913960400191505060405180910390fd5b9392505050565b6000808211610ef3576040805162461bcd60e51b815260206004820152601a60248201527f536166654d6174683a206469766973696f6e206279207a65726f000000000000604482015290519081900360640190fd5b818381610efc57fe5b049392505050565b600082820183811015610e96576040805162461bcd60e51b815260206004820152601b60248201527f536166654d6174683a206164646974696f6e206f766572666c6f770000000000604482015290519081900360640190fd5b604080516001600160a01b038416602482015260448082018490528251808303909101815260649091019091526020810180516001600160e01b031663a9059cbb60e01b179052610fb090849061108f565b505050565b6000610e966127106104608486610e3d565b600154610fd49083610de0565b60015533600090815260026020526040902054610ff19083610de0565b336000818152600260205260408120929092559054610618916001600160a01b039091169083610f5e565b3390565b600081831061102f5781610e96565b5090919050565b6001546110439082610f04565b600155336000908152600260205260409020546110609082610f04565b33600081815260026020526040812092909255905461108c916001600160a01b03909116903084611140565b50565b60606110e4826040518060400160405280602081526020017f5361666545524332303a206c6f772d6c6576656c2063616c6c206661696c6564815250856001600160a01b03166111a09092919063ffffffff16565b805190915015610fb05780806020019051602081101561110357600080fd5b5051610fb05760405162461bcd60e51b815260040180806020018281038252602a81526020018061146c602a913960400191505060405180910390fd5b604080516001600160a01b0380861660248301528416604482015260648082018490528251808303909101815260849091019091526020810180516001600160e01b03166323b872dd60e01b17905261119a90859061108f565b50505050565b60606111af84846000856111b7565b949350505050565b6060824710156111f85760405162461bcd60e51b81526004018080602001828103825260268152602001806113e46026913960400191505060405180910390fd5b61120185611313565b611252576040805162461bcd60e51b815260206004820152601d60248201527f416464726573733a2063616c6c20746f206e6f6e2d636f6e7472616374000000604482015290519081900360640190fd5b60006060866001600160a01b031685876040518082805190602001908083835b602083106112915780518252601f199092019160209182019101611272565b6001836020036101000a03801982511681845116808217855250505050505090500191505060006040518083038185875af1925050503d80600081146112f3576040519150601f19603f3d011682016040523d82523d6000602084013e6112f8565b606091505b5091509150611308828286611319565b979650505050505050565b3b151590565b60608315611328575081610e96565b8251156113385782518084602001fd5b8160405162461bcd60e51b81526004018080602001828103825283818151815260200191508051906020019080838360005b8381101561138257818101518382015260200161136a565b50505050905090810190601f1680156113af5780820380516001836020036101000a031916815260200191505b509250505060405180910390fdfe4f776e61626c653a206e6577206f776e657220697320746865207a65726f2061646472657373416464726573733a20696e73756666696369656e742062616c616e636520666f722063616c6c536166654d6174683a206d756c7469706c69636174696f6e206f766572666c6f77556e666f6c64506f6f6c3a206665652062656e65666963696172206973203078304f776e61626c653a2063616c6c6572206973206e6f7420746865206f776e65725361666545524332303a204552433230206f7065726174696f6e20646964206e6f742073756363656564a26469706673582212201174656dd68dab5a80d083aaa855b30f8a31fe668b121f4655e58c0f514961fa64736f6c634300060c0033",
  "devdoc": {
    "kind": "dev",
    "methods": {
      "owner()": {
        "details": "Returns the address of the current owner."
      },
      "renounceOwnership()": {
        "details": "Leaves the contract without owner. It will not be possible to call `onlyOwner` functions anymore. Can only be called by the current owner. NOTE: Renouncing ownership will leave the contract without an owner, thereby removing any functionality that is only available to the owner."
      },
      "transferOwnership(address)": {
        "details": "Transfers ownership of the contract to a new account (`newOwner`). Can only be called by the current owner."
      }
    },
    "version": 1
  },
  "userdoc": {
    "kind": "user",
    "methods": {
      "calculateWithdrawalFeeBp(uint256)": {
        "notice": "Calculates withdrawal fee basis point."
      }
    },
    "version": 1
  },
  "storageLayout": {
    "storage": [
      {
        "astId": 1662,
        "contract": "contracts/pool/UnfoldERCPool.sol:UnfoldERCPool",
        "label": "poolToken",
        "offset": 0,
        "slot": "0",
        "type": "t_contract(IERC20)1118"
      },
      {
        "astId": 1664,
        "contract": "contracts/pool/UnfoldERCPool.sol:UnfoldERCPool",
        "label": "_totalSupply",
        "offset": 0,
        "slot": "1",
        "type": "t_uint256"
      },
      {
        "astId": 1668,
        "contract": "contracts/pool/UnfoldERCPool.sol:UnfoldERCPool",
        "label": "_balances",
        "offset": 0,
        "slot": "2",
        "type": "t_mapping(t_address,t_uint256)"
      },
      {
        "astId": 7,
        "contract": "contracts/pool/UnfoldERCPool.sol:UnfoldERCPool",
        "label": "_owner",
        "offset": 0,
        "slot": "3",
        "type": "t_address"
      },
      {
        "astId": 1794,
        "contract": "contracts/pool/UnfoldERCPool.sol:UnfoldERCPool",
        "label": "rewardToken",
        "offset": 0,
        "slot": "4",
        "type": "t_contract(IERC20)1118"
      },
      {
        "astId": 1796,
        "contract": "contracts/pool/UnfoldERCPool.sol:UnfoldERCPool",
        "label": "duration",
        "offset": 0,
        "slot": "5",
        "type": "t_uint256"
      },
      {
        "astId": 1799,
        "contract": "contracts/pool/UnfoldERCPool.sol:UnfoldERCPool",
        "label": "periodFinish",
        "offset": 0,
        "slot": "6",
        "type": "t_uint256"
      },
      {
        "astId": 1802,
        "contract": "contracts/pool/UnfoldERCPool.sol:UnfoldERCPool",
        "label": "rewardRate",
        "offset": 0,
        "slot": "7",
        "type": "t_uint256"
      },
      {
        "astId": 1804,
        "contract": "contracts/pool/UnfoldERCPool.sol:UnfoldERCPool",
        "label": "lastUpdateTime",
        "offset": 0,
        "slot": "8",
        "type": "t_uint256"
      },
      {
        "astId": 1806,
        "contract": "contracts/pool/UnfoldERCPool.sol:UnfoldERCPool",
        "label": "rewardPerTokenStored",
        "offset": 0,
        "slot": "9",
        "type": "t_uint256"
      },
      {
        "astId": 1810,
        "contract": "contracts/pool/UnfoldERCPool.sol:UnfoldERCPool",
        "label": "userRewardPerTokenPaid",
        "offset": 0,
        "slot": "10",
        "type": "t_mapping(t_address,t_uint256)"
      },
      {
        "astId": 1814,
        "contract": "contracts/pool/UnfoldERCPool.sol:UnfoldERCPool",
        "label": "rewards",
        "offset": 0,
        "slot": "11",
        "type": "t_mapping(t_address,t_uint256)"
      },
      {
        "astId": 1818,
        "contract": "contracts/pool/UnfoldERCPool.sol:UnfoldERCPool",
        "label": "lastDepositTime",
        "offset": 0,
        "slot": "12",
        "type": "t_mapping(t_address,t_uint256)"
      },
      {
        "astId": 1820,
        "contract": "contracts/pool/UnfoldERCPool.sol:UnfoldERCPool",
        "label": "feeBeneficiar",
        "offset": 0,
        "slot": "13",
        "type": "t_address_payable"
      }
    ],
    "types": {
      "t_address": {
        "encoding": "inplace",
        "label": "address",
        "numberOfBytes": "20"
      },
      "t_address_payable": {
        "encoding": "inplace",
        "label": "address payable",
        "numberOfBytes": "20"
      },
      "t_contract(IERC20)1118": {
        "encoding": "inplace",
        "label": "contract IERC20",
        "numberOfBytes": "20"
      },
      "t_mapping(t_address,t_uint256)": {
        "encoding": "mapping",
        "key": "t_address",
        "label": "mapping(address => uint256)",
        "numberOfBytes": "32",
        "value": "t_uint256"
      },
      "t_uint256": {
        "encoding": "inplace",
        "label": "uint256",
        "numberOfBytes": "32"
      }
    }
  }
}