{
  "address": "0xDf2E367019A3c166BB7233A224bDaB130718a121",
  "abi": [
    {
      "inputs": [
        {
          "internalType": "contract IERC20",
          "name": "_poolToken",
          "type": "address"
        },
        {
          "internalType": "contract IERC20",
          "name": "_rewardToken",
          "type": "address"
        },
        {
          "internalType": "uint256",
          "name": "_duration",
          "type": "uint256"
        },
        {
          "internalType": "address payable",
          "name": "_feeBeneficiar",
          "type": "address"
        }
      ],
      "stateMutability": "nonpayable",
      "type": "constructor"
    },
    {
      "anonymous": false,
      "inputs": [
        {
          "indexed": false,
          "internalType": "uint256",
          "name": "fee",
          "type": "uint256"
        }
      ],
      "name": "DepositFeeUpdated",
      "type": "event"
    },
    {
      "anonymous": false,
      "inputs": [
        {
          "indexed": true,
          "internalType": "address",
          "name": "beneficiar",
          "type": "address"
        }
      ],
      "name": "FeeBeneficiarUpdated",
      "type": "event"
    },
    {
      "anonymous": false,
      "inputs": [
        {
          "indexed": true,
          "internalType": "address",
          "name": "previousOwner",
          "type": "address"
        },
        {
          "indexed": true,
          "internalType": "address",
          "name": "newOwner",
          "type": "address"
        }
      ],
      "name": "OwnershipTransferred",
      "type": "event"
    },
    {
      "anonymous": false,
      "inputs": [
        {
          "indexed": false,
          "internalType": "uint256",
          "name": "reward",
          "type": "uint256"
        }
      ],
      "name": "RewardAdded",
      "type": "event"
    },
    {
      "anonymous": false,
      "inputs": [
        {
          "indexed": true,
          "internalType": "address",
          "name": "user",
          "type": "address"
        },
        {
          "indexed": false,
          "internalType": "uint256",
          "name": "reward",
          "type": "uint256"
        }
      ],
      "name": "RewardPaid",
      "type": "event"
    },
    {
      "anonymous": false,
      "inputs": [
        {
          "indexed": true,
          "internalType": "address",
          "name": "user",
          "type": "address"
        },
        {
          "indexed": false,
          "internalType": "uint256",
          "name": "amount",
          "type": "uint256"
        }
      ],
      "name": "Staked",
      "type": "event"
    },
    {
      "anonymous": false,
      "inputs": [
        {
          "indexed": false,
          "internalType": "uint256",
          "name": "fee",
          "type": "uint256"
        }
      ],
      "name": "WithdrawFeeUpdated",
      "type": "event"
    },
    {
      "anonymous": false,
      "inputs": [
        {
          "indexed": true,
          "internalType": "address",
          "name": "user",
          "type": "address"
        },
        {
          "indexed": false,
          "internalType": "uint256",
          "name": "amount",
          "type": "uint256"
        }
      ],
      "name": "Withdrawn",
      "type": "event"
    },
    {
      "inputs": [],
      "name": "FEE_BASE",
      "outputs": [
        {
          "internalType": "uint256",
          "name": "",
          "type": "uint256"
        }
      ],
      "stateMutability": "view",
      "type": "function"
    },
    {
      "inputs": [],
      "name": "WEEK_DURATION",
      "outputs": [
        {
          "internalType": "uint256",
          "name": "",
          "type": "uint256"
        }
      ],
      "stateMutability": "view",
      "type": "function"
    },
    {
      "inputs": [
        {
          "internalType": "uint256",
          "name": "reward",
          "type": "uint256"
        }
      ],
      "name": "addReward",
      "outputs": [],
      "stateMutability": "nonpayable",
      "type": "function"
    },
    {
      "inputs": [
        {
          "internalType": "address",
          "name": "account",
          "type": "address"
        }
      ],
      "name": "balanceOf",
      "outputs": [
        {
          "internalType": "uint256",
          "name": "",
          "type": "uint256"
        }
      ],
      "stateMutability": "view",
      "type": "function"
    },
    {
      "inputs": [
        {
          "internalType": "uint256",
          "name": "_despositTime",
          "type": "uint256"
        }
      ],
      "name": "calculateWithdrawalFeeBp",
      "outputs": [
        {
          "internalType": "uint256",
          "name": "",
          "type": "uint256"
        }
      ],
      "stateMutability": "view",
      "type": "function"
    },
    {
      "inputs": [],
      "name": "depositFeeBp",
      "outputs": [
        {
          "internalType": "uint256",
          "name": "",
          "type": "uint256"
        }
      ],
      "stateMutability": "view",
      "type": "function"
    },
    {
      "inputs": [],
      "name": "duration",
      "outputs": [
        {
          "internalType": "uint256",
          "name": "",
          "type": "uint256"
        }
      ],
      "stateMutability": "view",
      "type": "function"
    },
    {
      "inputs": [
        {
          "internalType": "address",
          "name": "account",
          "type": "address"
        }
      ],
      "name": "earned",
      "outputs": [
        {
          "internalType": "uint256",
          "name": "",
          "type": "uint256"
        }
      ],
      "stateMutability": "view",
      "type": "function"
    },
    {
      "inputs": [],
      "name": "exit",
      "outputs": [],
      "stateMutability": "nonpayable",
      "type": "function"
    },
    {
      "inputs": [],
      "name": "feeBeneficiar",
      "outputs": [
        {
          "internalType": "address payable",
          "name": "",
          "type": "address"
        }
      ],
      "stateMutability": "view",
      "type": "function"
    },
    {
      "inputs": [],
      "name": "getReward",
      "outputs": [],
      "stateMutability": "nonpayable",
      "type": "function"
    },
    {
      "inputs": [
        {
          "internalType": "address",
          "name": "",
          "type": "address"
        }
      ],
      "name": "lastDepositTime",
      "outputs": [
        {
          "internalType": "uint256",
          "name": "",
          "type": "uint256"
        }
      ],
      "stateMutability": "view",
      "type": "function"
    },
    {
      "inputs": [],
      "name": "lastTimeRewardApplicable",
      "outputs": [
        {
          "internalType": "uint256",
          "name": "",
          "type": "uint256"
        }
      ],
      "stateMutability": "view",
      "type": "function"
    },
    {
      "inputs": [],
      "name": "lastUpdateTime",
      "outputs": [
        {
          "internalType": "uint256",
          "name": "",
          "type": "uint256"
        }
      ],
      "stateMutability": "view",
      "type": "function"
    },
    {
      "inputs": [],
      "name": "minWithdrawFeeBp",
      "outputs": [
        {
          "internalType": "uint256",
          "name": "",
          "type": "uint256"
        }
      ],
      "stateMutability": "view",
      "type": "function"
    },
    {
      "inputs": [],
      "name": "owner",
      "outputs": [
        {
          "internalType": "address",
          "name": "",
          "type": "address"
        }
      ],
      "stateMutability": "view",
      "type": "function"
    },
    {
      "inputs": [],
      "name": "periodFinish",
      "outputs": [
        {
          "internalType": "uint256",
          "name": "",
          "type": "uint256"
        }
      ],
      "stateMutability": "view",
      "type": "function"
    },
    {
      "inputs": [],
      "name": "poolToken",
      "outputs": [
        {
          "internalType": "contract IERC20",
          "name": "",
          "type": "address"
        }
      ],
      "stateMutability": "view",
      "type": "function"
    },
    {
      "inputs": [],
      "name": "renounceOwnership",
      "outputs": [],
      "stateMutability": "nonpayable",
      "type": "function"
    },
    {
      "inputs": [],
      "name": "rewardPerToken",
      "outputs": [
        {
          "internalType": "uint256",
          "name": "",
          "type": "uint256"
        }
      ],
      "stateMutability": "view",
      "type": "function"
    },
    {
      "inputs": [],
      "name": "rewardPerTokenStored",
      "outputs": [
        {
          "internalType": "uint256",
          "name": "",
          "type": "uint256"
        }
      ],
      "stateMutability": "view",
      "type": "function"
    },
    {
      "inputs": [],
      "name": "rewardRate",
      "outputs": [
        {
          "internalType": "uint256",
          "name": "",
          "type": "uint256"
        }
      ],
      "stateMutability": "view",
      "type": "function"
    },
    {
      "inputs": [],
      "name": "rewardToken",
      "outputs": [
        {
          "internalType": "contract IERC20",
          "name": "",
          "type": "address"
        }
      ],
      "stateMutability": "view",
      "type": "function"
    },
    {
      "inputs": [
        {
          "internalType": "address",
          "name": "",
          "type": "address"
        }
      ],
      "name": "rewards",
      "outputs": [
        {
          "internalType": "uint256",
          "name": "",
          "type": "uint256"
        }
      ],
      "stateMutability": "view",
      "type": "function"
    },
    {
      "inputs": [
        {
          "internalType": "uint256",
          "name": "_amount",
          "type": "uint256"
        }
      ],
      "name": "stake",
      "outputs": [],
      "stateMutability": "nonpayable",
      "type": "function"
    },
    {
      "inputs": [],
      "name": "totalSupply",
      "outputs": [
        {
          "internalType": "uint256",
          "name": "",
          "type": "uint256"
        }
      ],
      "stateMutability": "view",
      "type": "function"
    },
    {
      "inputs": [
        {
          "internalType": "address",
          "name": "newOwner",
          "type": "address"
        }
      ],
      "name": "transferOwnership",
      "outputs": [],
      "stateMutability": "nonpayable",
      "type": "function"
    },
    {
      "inputs": [
        {
          "internalType": "uint256",
          "name": "_depositFeeBp",
          "type": "uint256"
        }
      ],
      "name": "updateDepositFee",
      "outputs": [],
      "stateMutability": "nonpayable",
      "type": "function"
    },
    {
      "inputs": [
        {
          "internalType": "address payable",
          "name": "_feeBeneficiar",
          "type": "address"
        }
      ],
      "name": "updateFeeBeneficiar",
      "outputs": [],
      "stateMutability": "nonpayable",
      "type": "function"
    },
    {
      "inputs": [
        {
          "internalType": "uint256",
          "name": "_minWithdrawFeeBp",
          "type": "uint256"
        }
      ],
      "name": "updateMinWithdrawFee",
      "outputs": [],
      "stateMutability": "nonpayable",
      "type": "function"
    },
    {
      "inputs": [
        {
          "internalType": "address",
          "name": "",
          "type": "address"
        }
      ],
      "name": "userRewardPerTokenPaid",
      "outputs": [
        {
          "internalType": "uint256",
          "name": "",
          "type": "uint256"
        }
      ],
      "stateMutability": "view",
      "type": "function"
    },
    {
      "inputs": [
        {
          "internalType": "uint256",
          "name": "_amount",
          "type": "uint256"
        },
        {
          "internalType": "uint256",
          "name": "_",
          "type": "uint256"
        }
      ],
      "name": "withdraw",
      "outputs": [],
      "stateMutability": "nonpayable",
      "type": "function"
    }
  ],
  "transactionHash": "0xd5a2b3a74a2f980b0917dda1134a40ba588a3fea2086478cf119e0a913f3c600",
  "args": [
    "0xd0A1E359811322d97991E03f863a0C30C2cF029C",
    "0x56FA4Fa9608e645ef2125DbAFA560a68231E6366",
    8640000,
    "0xd5f42b2e244711e1DFD0AfD5B720B808d9eDebeB"
  ],
  "solcInputHash": "acfce10bbf7451a835c9c21f59651862",
  "bytecode": "0x6080604052600060065560006007556064600e556064600f5534801561002457600080fd5b506040516118c73803806118c78339818101604052608081101561004757600080fd5b50805160208201516040830151606090930151600080546001600160a01b0319166001600160a01b03851617815592939192610081610107565b600380546001600160a01b0319166001600160a01b038316908117909155604051919250906000907f8be0079c531659141344cd1fd0a4f28419497f9722a3daafe3b4186f6b6457e0908290a350600480546001600160a01b039485166001600160a01b031991821617909155600592909255600d80549190931691161790555061010b565b3390565b6117ad8061011a6000396000f3fe608060405234801561001057600080fd5b50600436106101ef5760003560e01c80637b0a47ee1161010f578063cbdf382c116100a2578063ebe2b12b11610071578063ebe2b12b1461043c578063ecefc70514610444578063f2fde38b1461044c578063f7c618c114610472576101ef565b8063cbdf382c1461041c578063cd3daf9d14610424578063df136d651461042c578063e9fad8ee14610434576101ef565b80638b876347116100de5780638b876347146103c95780638da5cb5b146103ef578063a694fc3a146103f7578063c8f33c9114610414576101ef565b80637b0a47ee146103785780637cbd1fa01461038057806380faa57d1461039d57806383725b0e146103a5576101ef565b80633e7b0c9411610187578063715018a611610156578063715018a61461034357806373dbf9f41461034b57806374de4ec41461035357806376f5f70014610370576101ef565b80633e7b0c94146102cc578063441a3e70146102d45780634fe8d701146102f757806370a082311461031d576101ef565b80630fb5a6b4116101c35780630fb5a6b41461029757806318160ddd1461029f578063199a0fa8146102a75780633d18b912146102c4576101ef565b80628cc262146101f4578063017def571461022c578063025277531461024b5780630700037d14610271575b600080fd5b61021a6004803603602081101561020a57600080fd5b50356001600160a01b031661047a565b60408051918252519081900360200190f35b6102496004803603602081101561024257600080fd5b50356104e8565b005b61021a6004803603602081101561026157600080fd5b50356001600160a01b03166105c6565b61021a6004803603602081101561028757600080fd5b50356001600160a01b03166105d8565b61021a6105ea565b61021a6105f0565b61021a600480360360208110156102bd57600080fd5b50356105f7565b6102496106d2565b61021a6107a4565b610249600480360360408110156102ea57600080fd5b50803590602001356107aa565b6102496004803603602081101561030d57600080fd5b50356001600160a01b031661094b565b61021a6004803603602081101561033357600080fd5b50356001600160a01b0316610a3c565b610249610a57565b61021a610b03565b6102496004803603602081101561036957600080fd5b5035610b09565b61021a610c76565b61021a610c7d565b6102496004803603602081101561039657600080fd5b5035610c83565b61021a610d61565b6103ad610d74565b604080516001600160a01b039092168252519081900360200190f35b61021a600480360360208110156103df57600080fd5b50356001600160a01b0316610d83565b6103ad610d95565b6102496004803603602081101561040d57600080fd5b5035610da4565b61021a610ee7565b6103ad610eed565b61021a610efc565b61021a610f4a565b610249610f50565b61021a610f74565b61021a610f7a565b6102496004803603602081101561046257600080fd5b50356001600160a01b0316610f80565b6103ad611083565b6001600160a01b0381166000908152600b6020908152604080832054600a9092528220546104e291906104dc90670de0b6b3a7640000906104d6906104c7906104c1610efc565b90611092565b6104d088610a3c565b906110ef565b9061114f565b906111b6565b92915050565b6104f0611210565b6001600160a01b0316610501610d95565b6001600160a01b03161461054a576040805162461bcd60e51b8152602060048201819052602482015260008051602061172e833981519152604482015290519081900360640190fd5b61271081111561058b5760405162461bcd60e51b81526004018080602001828103825260308152602001806116966030913960400191505060405180910390fd5b600e8190556040805182815290517f206dd15151fcc83315419fbe53a71fcf9c09da803767d3dd05f7874e1b9bf6459181900360200190a150565b600c6020526000908152604090205481565b600b6020526000908152604090205481565b60055481565b6001545b90565b600f54600090816106084285611092565b905062093a80811015610627576106208260056110ef565b91506106cb565b62093a808110158015610646575061064362093a8060026110ef565b81105b15610656576106208260046110ef565b61066462093a8060026110ef565b811015801561067f575061067c62093a8060036110ef565b81105b1561068f576106208260036110ef565b61069d62093a8060036110ef565b81101580156106b857506106b562093a8060046110ef565b81105b156106cb576106c88260026110ef565b91505b5092915050565b336106db610efc565b6009556106e6610d61565b6008556001600160a01b0381161561072d576107018161047a565b6001600160a01b0382166000908152600b6020908152604080832093909355600954600a909152919020555b60006107383361047a565b905080156107a057336000818152600b6020526040812055600454610769916001600160a01b039091169083611214565b60408051828152905133917fe2403640ba68fed3a2f88b7557551d1993f84b99bb10ff833f0cf8db0c5e0486919081900360200190a25b5050565b600e5481565b336107b3610efc565b6009556107be610d61565b6008556001600160a01b03811615610805576107d98161047a565b6001600160a01b0382166000908152600b6020908152604080832093909355600954600a909152919020555b6000831161085a576040805162461bcd60e51b815260206004820152601d60248201527f556e666f6c64506f6f6c3a2063616e6e6f742077697468647261772030000000604482015290519081900360640190fd5b8183146108ae576040805162461bcd60e51b815260206004820152601f60248201527f556e666f6c64506f6f6c3a20706172616d732073686f756c6420626520657100604482015290519081900360640190fd5b336000908152600c60205260408120546108c7906105f7565b905060006108d5828661126b565b905060006108e38683611092565b600d54600054919250610903916001600160a01b03908116911684611214565b61090d868261127d565b60408051828152905133917f7084f5476618d8e60b11ef0d7d3f06914655adb8793e28ff7f018d4c76d505d5919081900360200190a2505050505050565b610953611210565b6001600160a01b0316610964610d95565b6001600160a01b0316146109ad576040805162461bcd60e51b8152602060048201819052602482015260008051602061172e833981519152604482015290519081900360640190fd5b6001600160a01b0381166109f25760405162461bcd60e51b815260040180806020018281038252602181526020018061170d6021913960400191505060405180910390fd5b600d80546001600160a01b0319166001600160a01b0383169081179091556040517fd1d47de4a57cc77fc7230b91c06532faf06a1485e840bd43ef755d6ca731a85990600090a250565b6001600160a01b031660009081526002602052604090205490565b610a5f611210565b6001600160a01b0316610a70610d95565b6001600160a01b031614610ab9576040805162461bcd60e51b8152602060048201819052602482015260008051602061172e833981519152604482015290519081900360640190fd5b6003546040516000916001600160a01b0316907f8be0079c531659141344cd1fd0a4f28419497f9722a3daafe3b4186f6b6457e0908390a3600380546001600160a01b0319169055565b600f5481565b610b11611210565b6001600160a01b0316610b22610d95565b6001600160a01b031614610b6b576040805162461bcd60e51b8152602060048201819052602482015260008051602061172e833981519152604482015290519081900360640190fd5b6000610b75610efc565b600955610b80610d61565b6008556001600160a01b03811615610bc757610b9b8161047a565b6001600160a01b0382166000908152600b6020908152604080832093909355600954600a909152919020555b6006544210610be657600554610bde90839061114f565b600755610c29565b600654600090610bf69042611092565b90506000610c0f600754836110ef90919063ffffffff16565b600554909150610c23906104d686846111b6565b60075550505b426008819055600554610c3c91906111b6565b6006556040805183815290517fde88a922e0d3b88b24e9623efeb464919c6bf9f66857a65e2bfcf2ce87a9433d9181900360200190a15050565b62093a8081565b60075481565b610c8b611210565b6001600160a01b0316610c9c610d95565b6001600160a01b031614610ce5576040805162461bcd60e51b8152602060048201819052602482015260008051602061172e833981519152604482015290519081900360640190fd5b612710811115610d265760405162461bcd60e51b81526004018080602001828103825260308152602001806116966030913960400191505060405180910390fd5b600f8190556040805182815290517f9a1f74aeeb037eb3d45b22a56376dadd6ba6ded25ec3727e520415f6c76768a99181900360200190a150565b6000610d6f426006546112d2565b905090565b600d546001600160a01b031681565b600a6020526000908152604090205481565b6003546001600160a01b031690565b33610dad610efc565b600955610db8610d61565b6008556001600160a01b03811615610dff57610dd38161047a565b6001600160a01b0382166000908152600b6020908152604080832093909355600954600a909152919020555b60008211610e54576040805162461bcd60e51b815260206004820152601a60248201527f556e666f6c64506f6f6c3a2063616e6e6f74207374616b652030000000000000604482015290519081900360640190fd5b6000610e62600e548461126b565b90506000610e708483611092565b336000818152600c60205260408120429055600d549054929350610ea2926001600160a01b03908116929116856112e8565b610eab81611348565b60408051828152905133917f9e71bc8eea02a63969f509818f2dafb9254532904319f9dbda79b67bd34a5f3d919081900360200190a250505050565b60085481565b6000546001600160a01b031681565b6000610f066105f0565b610f1357506009546105f4565b610d6f610f41610f216105f0565b6104d6670de0b6b3a76400006104d06007546104d06008546104c1610d61565b600954906111b6565b60095481565b610f6a610f5c33610a3c565b610f6533610a3c565b6107aa565b610f726106d2565b565b60065481565b61271081565b610f88611210565b6001600160a01b0316610f99610d95565b6001600160a01b031614610fe2576040805162461bcd60e51b8152602060048201819052602482015260008051602061172e833981519152604482015290519081900360640190fd5b6001600160a01b0381166110275760405162461bcd60e51b81526004018080602001828103825260268152602001806116706026913960400191505060405180910390fd5b6003546040516001600160a01b038084169216907f8be0079c531659141344cd1fd0a4f28419497f9722a3daafe3b4186f6b6457e090600090a3600380546001600160a01b0319166001600160a01b0392909216919091179055565b6004546001600160a01b031681565b6000828211156110e9576040805162461bcd60e51b815260206004820152601e60248201527f536166654d6174683a207375627472616374696f6e206f766572666c6f770000604482015290519081900360640190fd5b50900390565b6000826110fe575060006104e2565b8282028284828161110b57fe5b04146111485760405162461bcd60e51b81526004018080602001828103825260218152602001806116ec6021913960400191505060405180910390fd5b9392505050565b60008082116111a5576040805162461bcd60e51b815260206004820152601a60248201527f536166654d6174683a206469766973696f6e206279207a65726f000000000000604482015290519081900360640190fd5b8183816111ae57fe5b049392505050565b600082820183811015611148576040805162461bcd60e51b815260206004820152601b60248201527f536166654d6174683a206164646974696f6e206f766572666c6f770000000000604482015290519081900360640190fd5b3390565b604080516001600160a01b038416602482015260448082018490528251808303909101815260649091019091526020810180516001600160e01b031663a9059cbb60e01b1790526112669084906113a1565b505050565b60006111486127106104d684866110ef565b60015461128a9083611092565b600155336000908152600260205260409020546112a79083611092565b3360008181526002602052604081209290925590546107a0916001600160a01b039091169083611214565b60008183106112e15781611148565b5090919050565b604080516001600160a01b0380861660248301528416604482015260648082018490528251808303909101815260849091019091526020810180516001600160e01b03166323b872dd60e01b1790526113429085906113a1565b50505050565b60015461135590826111b6565b6001553360009081526002602052604090205461137290826111b6565b33600081815260026020526040812092909255905461139e916001600160a01b039091169030846112e8565b50565b60606113f6826040518060400160405280602081526020017f5361666545524332303a206c6f772d6c6576656c2063616c6c206661696c6564815250856001600160a01b03166114529092919063ffffffff16565b8051909150156112665780806020019051602081101561141557600080fd5b50516112665760405162461bcd60e51b815260040180806020018281038252602a81526020018061174e602a913960400191505060405180910390fd5b60606114618484600085611469565b949350505050565b6060824710156114aa5760405162461bcd60e51b81526004018080602001828103825260268152602001806116c66026913960400191505060405180910390fd5b6114b3856115c5565b611504576040805162461bcd60e51b815260206004820152601d60248201527f416464726573733a2063616c6c20746f206e6f6e2d636f6e7472616374000000604482015290519081900360640190fd5b60006060866001600160a01b031685876040518082805190602001908083835b602083106115435780518252601f199092019160209182019101611524565b6001836020036101000a03801982511681845116808217855250505050505090500191505060006040518083038185875af1925050503d80600081146115a5576040519150601f19603f3d011682016040523d82523d6000602084013e6115aa565b606091505b50915091506115ba8282866115cb565b979650505050505050565b3b151590565b606083156115da575081611148565b8251156115ea5782518084602001fd5b8160405162461bcd60e51b81526004018080602001828103825283818151815260200191508051906020019080838360005b8381101561163457818101518382015260200161161c565b50505050905090810190601f1680156116615780820380516001836020036101000a031916815260200191505b509250505060405180910390fdfe4f776e61626c653a206e6577206f776e657220697320746865207a65726f2061646472657373556e666f6c64506f6f6c3a206665652073686f756c64206265206265747765656e203020616e64204645455f42415345416464726573733a20696e73756666696369656e742062616c616e636520666f722063616c6c536166654d6174683a206d756c7469706c69636174696f6e206f766572666c6f77556e666f6c64506f6f6c3a206665652062656e65666963696172206973203078304f776e61626c653a2063616c6c6572206973206e6f7420746865206f776e65725361666545524332303a204552433230206f7065726174696f6e20646964206e6f742073756363656564a26469706673582212201f2da03b409033371529ef2f50e946fcfc69e8dce7797ba66d9c0a423fd7fba864736f6c634300060c0033",
  "devdoc": {
    "kind": "dev",
    "methods": {
      "owner()": {
        "details": "Returns the address of the current owner."
      },
      "renounceOwnership()": {
        "details": "Leaves the contract without owner. It will not be possible to call `onlyOwner` functions anymore. Can only be called by the current owner. NOTE: Renouncing ownership will leave the contract without an owner, thereby removing any functionality that is only available to the owner."
      },
      "transferOwnership(address)": {
        "details": "Transfers ownership of the contract to a new account (`newOwner`). Can only be called by the current owner."
      }
    },
    "version": 1
  },
  "userdoc": {
    "kind": "user",
    "methods": {
      "calculateWithdrawalFeeBp(uint256)": {
        "notice": "Calculates withdrawal fee basis point."
      }
    },
    "version": 1
  },
  "storageLayout": {
    "storage": [
      {
        "astId": 1662,
        "contract": "contracts/pool/UnfoldERCPool.sol:UnfoldERCPool",
        "label": "poolToken",
        "offset": 0,
        "slot": "0",
        "type": "t_contract(IERC20)1118"
      },
      {
        "astId": 1664,
        "contract": "contracts/pool/UnfoldERCPool.sol:UnfoldERCPool",
        "label": "_totalSupply",
        "offset": 0,
        "slot": "1",
        "type": "t_uint256"
      },
      {
        "astId": 1668,
        "contract": "contracts/pool/UnfoldERCPool.sol:UnfoldERCPool",
        "label": "_balances",
        "offset": 0,
        "slot": "2",
        "type": "t_mapping(t_address,t_uint256)"
      },
      {
        "astId": 7,
        "contract": "contracts/pool/UnfoldERCPool.sol:UnfoldERCPool",
        "label": "_owner",
        "offset": 0,
        "slot": "3",
        "type": "t_address"
      },
      {
        "astId": 1794,
        "contract": "contracts/pool/UnfoldERCPool.sol:UnfoldERCPool",
        "label": "rewardToken",
        "offset": 0,
        "slot": "4",
        "type": "t_contract(IERC20)1118"
      },
      {
        "astId": 1796,
        "contract": "contracts/pool/UnfoldERCPool.sol:UnfoldERCPool",
        "label": "duration",
        "offset": 0,
        "slot": "5",
        "type": "t_uint256"
      },
      {
        "astId": 1802,
        "contract": "contracts/pool/UnfoldERCPool.sol:UnfoldERCPool",
        "label": "periodFinish",
        "offset": 0,
        "slot": "6",
        "type": "t_uint256"
      },
      {
        "astId": 1805,
        "contract": "contracts/pool/UnfoldERCPool.sol:UnfoldERCPool",
        "label": "rewardRate",
        "offset": 0,
        "slot": "7",
        "type": "t_uint256"
      },
      {
        "astId": 1807,
        "contract": "contracts/pool/UnfoldERCPool.sol:UnfoldERCPool",
        "label": "lastUpdateTime",
        "offset": 0,
        "slot": "8",
        "type": "t_uint256"
      },
      {
        "astId": 1809,
        "contract": "contracts/pool/UnfoldERCPool.sol:UnfoldERCPool",
        "label": "rewardPerTokenStored",
        "offset": 0,
        "slot": "9",
        "type": "t_uint256"
      },
      {
        "astId": 1813,
        "contract": "contracts/pool/UnfoldERCPool.sol:UnfoldERCPool",
        "label": "userRewardPerTokenPaid",
        "offset": 0,
        "slot": "10",
        "type": "t_mapping(t_address,t_uint256)"
      },
      {
        "astId": 1817,
        "contract": "contracts/pool/UnfoldERCPool.sol:UnfoldERCPool",
        "label": "rewards",
        "offset": 0,
        "slot": "11",
        "type": "t_mapping(t_address,t_uint256)"
      },
      {
        "astId": 1821,
        "contract": "contracts/pool/UnfoldERCPool.sol:UnfoldERCPool",
        "label": "lastDepositTime",
        "offset": 0,
        "slot": "12",
        "type": "t_mapping(t_address,t_uint256)"
      },
      {
        "astId": 1823,
        "contract": "contracts/pool/UnfoldERCPool.sol:UnfoldERCPool",
        "label": "feeBeneficiar",
        "offset": 0,
        "slot": "13",
        "type": "t_address_payable"
      },
      {
        "astId": 1829,
        "contract": "contracts/pool/UnfoldERCPool.sol:UnfoldERCPool",
        "label": "depositFeeBp",
        "offset": 0,
        "slot": "14",
        "type": "t_uint256"
      },
      {
        "astId": 1832,
        "contract": "contracts/pool/UnfoldERCPool.sol:UnfoldERCPool",
        "label": "minWithdrawFeeBp",
        "offset": 0,
        "slot": "15",
        "type": "t_uint256"
      }
    ],
    "types": {
      "t_address": {
        "encoding": "inplace",
        "label": "address",
        "numberOfBytes": "20"
      },
      "t_address_payable": {
        "encoding": "inplace",
        "label": "address payable",
        "numberOfBytes": "20"
      },
      "t_contract(IERC20)1118": {
        "encoding": "inplace",
        "label": "contract IERC20",
        "numberOfBytes": "20"
      },
      "t_mapping(t_address,t_uint256)": {
        "encoding": "mapping",
        "key": "t_address",
        "label": "mapping(address => uint256)",
        "numberOfBytes": "32",
        "value": "t_uint256"
      },
      "t_uint256": {
        "encoding": "inplace",
        "label": "uint256",
        "numberOfBytes": "32"
      }
    }
  }
}